{
  "contractName": "Election",
  "abi": [
    {
      "constant": true,
      "inputs": [],
      "name": "totalVotes",
      "outputs": [
        {
          "name": "",
          "type": "uint256"
        }
      ],
      "payable": false,
      "stateMutability": "view",
      "type": "function"
    },
    {
      "constant": true,
      "inputs": [],
      "name": "candidatesCount",
      "outputs": [
        {
          "name": "",
          "type": "uint256"
        }
      ],
      "payable": false,
      "stateMutability": "view",
      "type": "function"
    },
    {
      "constant": true,
      "inputs": [
        {
          "name": "",
          "type": "uint256"
        }
      ],
      "name": "candidates",
      "outputs": [
        {
          "name": "id",
          "type": "uint256"
        },
        {
          "name": "name",
          "type": "string"
        },
        {
          "name": "imgFile",
          "type": "string"
        },
        {
          "name": "voteCount",
          "type": "uint256"
        },
        {
          "name": "percent",
          "type": "uint256"
        }
      ],
      "payable": false,
      "stateMutability": "view",
      "type": "function"
    },
    {
      "constant": true,
      "inputs": [
        {
          "name": "",
          "type": "address"
        }
      ],
      "name": "voters",
      "outputs": [
        {
          "name": "",
          "type": "bool"
        }
      ],
      "payable": false,
      "stateMutability": "view",
      "type": "function"
    },
    {
      "inputs": [],
      "payable": false,
      "stateMutability": "nonpayable",
      "type": "constructor"
    },
    {
      "anonymous": false,
      "inputs": [
        {
          "indexed": true,
          "name": "_candidateid",
          "type": "uint256"
        }
      ],
      "name": "votedEvent",
      "type": "event"
    },
    {
      "constant": false,
      "inputs": [
        {
          "name": "_candidateid",
          "type": "uint256"
        }
      ],
      "name": "vote",
      "outputs": [],
      "payable": false,
      "stateMutability": "nonpayable",
      "type": "function"
    }
  ],
  "bytecode": "0x608060405234801561001057600080fd5b5061009660646040805190810160405280600a81526020017f42696c6c204761746573000000000000000000000000000000000000000000008152506040805190810160405280601981526020017f62696c6c2d67617465732d706963747572653178312e6a70670000000000000081525061022c640100000000026401000000009004565b61011b60c86040805190810160405280600981526020017f456c6f6e204d75736b00000000000000000000000000000000000000000000008152506040805190810160405280601881526020017f656c6f6e2d6d75736b2d706963747572653178312e6a7067000000000000000081525061022c640100000000026401000000009004565b6101a161012c6040805190810160405280600f81526020017f4d61726b205a75636b65726265726700000000000000000000000000000000008152506040805190810160405280601e81526020017f6d61726b2d7a75636b6572626572672d706963747572653178312e6a7067000081525061022c640100000000026401000000009004565b6102276101906040805190810160405280600a81526020017f5374657665204a6f6273000000000000000000000000000000000000000000008152506040805190810160405280601981526020017f73746576652d6a6f62732d706963747572653178312e6a70670000000000000081525061022c640100000000026401000000009004565b610375565b8260028190555060a060405190810160405280848152602001838152602001828152602001600081526020016000815250600160008581526020019081526020016000206000820151816000015560208201518160010190805190602001906102969291906102d0565b5060408201518160020190805190602001906102b39291906102d0565b506060820151816003015560808201518160040155905050505050565b828054600181600116156101000203166002900490600052602060002090601f016020900481019282601f1061031157805160ff191683800117855561033f565b8280016001018555821561033f579182015b8281111561033e578251825591602001919060010190610323565b5b50905061034c9190610350565b5090565b61037291905b8082111561036e576000816000905550600101610356565b5090565b90565b610585806103846000396000f30060806040526004361061006d576000357c0100000000000000000000000000000000000000000000000000000000900463ffffffff1680630121b93f146100725780630d15fd771461009f5780632d35a8a2146100ca5780633477ee2e146100f5578063a3ec138d1461021c575b600080fd5b34801561007e57600080fd5b5061009d60048036038101908080359060200190929190505050610277565b005b3480156100ab57600080fd5b506100b46103c7565b6040518082815260200191505060405180910390f35b3480156100d657600080fd5b506100df6103cd565b6040518082815260200191505060405180910390f35b34801561010157600080fd5b50610120600480360381019080803590602001909291905050506103d3565b604051808681526020018060200180602001858152602001848152602001838103835287818151815260200191508051906020019080838360005b8381101561017657808201518184015260208101905061015b565b50505050905090810190601f1680156101a35780820380516001836020036101000a031916815260200191505b50838103825286818151815260200191508051906020019080838360005b838110156101dc5780820151818401526020810190506101c1565b50505050905090810190601f1680156102095780820380516001836020036101000a031916815260200191505b5097505050505050505060405180910390f35b34801561022857600080fd5b5061025d600480360381019080803573ffffffffffffffffffffffffffffffffffffffff169060200190929190505050610539565b604051808215151515815260200191505060405180910390f35b60006064821480610288575060c882145b80610294575061012c82145b806102a0575061019082145b15156102ab57600080fd5b60016000803373ffffffffffffffffffffffffffffffffffffffff1673ffffffffffffffffffffffffffffffffffffffff16815260200190815260200160002060006101000a81548160ff0219169083151502179055506003600081548092919060010191905055506001600083815260200190815260200160002060030160008154809291906001019190505550606490505b6101908111151561039657600354606460016000848152602001908152602001600020600301540281151561037057fe5b04600160008381526020019081526020016000206004018190555060648101905061033f565b817ffff3c900d938d21d0990d786e819f29b8d05c1ef587b462b939609625b684b1660405160405180910390a25050565b60035481565b60025481565b6001602052806000526040600020600091509050806000015490806001018054600181600116156101000203166002900480601f0160208091040260200160405190810160405280929190818152602001828054600181600116156101000203166002900480156104855780601f1061045a57610100808354040283529160200191610485565b820191906000526020600020905b81548152906001019060200180831161046857829003601f168201915b505050505090806002018054600181600116156101000203166002900480601f0160208091040260200160405190810160405280929190818152602001828054600181600116156101000203166002900480156105235780601f106104f857610100808354040283529160200191610523565b820191906000526020600020905b81548152906001019060200180831161050657829003601f168201915b5050505050908060030154908060040154905085565b60006020528060005260406000206000915054906101000a900460ff16815600a165627a7a723058209f7712173d93ca0f625e26fe51f3b40330ca363b0ff06e3e0448fe9230e556970029",
  "source": "pragma solidity ^0.4.24;\r\n\r\ncontract Election {\r\n\r\n    // Model a Candidate\r\n    struct Candidate {\r\n        uint id;\r\n        string name;\r\n        string imgFile;\r\n        uint voteCount;\r\n        uint percent;\r\n    }\r\n\r\n    //store account\r\n    mapping (address => bool) public voters;\r\n\r\n    //store candidates\r\n    //fetch candidates\r\n    mapping (uint => Candidate) public candidates;\r\n    //contador de candidatos\r\n    uint public candidatesCount;\r\n    //contador total de votos\r\n    uint public totalVotes;\r\n    \r\n    event votedEvent(\r\n        uint indexed _candidateid\r\n    );\r\n\r\n    constructor() public{\r\n        addCandidate(100,\"Bill Gates\",\"bill-gates-picture1x1.jpg\");\r\n        addCandidate(200,\"Elon Musk\",\"elon-musk-picture1x1.jpg\");\r\n        addCandidate(300,\"Mark Zuckerberg\",\"mark-zuckerberg-picture1x1.jpg\");\r\n        addCandidate(400,\"Steve Jobs\",\"steve-jobs-picture1x1.jpg\");\r\n    }\r\n\r\n    function addCandidate (uint _id,string _name,string _imgFile)private {\r\n    \tcandidatesCount =_id;\r\n    \tcandidates[_id]= Candidate(_id,_name,_imgFile,0,0);\r\n    }\r\n\r\n    function vote(uint _candidateid) public {\r\n\r\n        //required that they haven`t voted before\r\n       // require(!voters[msg.sender]);\r\n\r\n        //required a valid candidate\r\n        require(_candidateid== 100 || _candidateid== 200 || _candidateid== 300 || _candidateid== 400  );\r\n\r\n        //record that voter has voted\r\n        voters[msg.sender] = true;\r\n\r\n        totalVotes++;\r\n        //update candidate vote voteCount\r\n        candidates[_candidateid].voteCount++;\r\n        \r\n        //update percent\r\n        for (uint i=100; i<=400; i=i+100) {\r\n            candidates[i].percent = ((candidates[i].voteCount * 100)/totalVotes);\r\n        }\r\n\r\n        //refresh\r\n        emit votedEvent(_candidateid);\r\n\r\n    }\r\n\r\n}",
  "sourcePath": "C:\\DzEY\\BlockChain\\Aplicações\\bck-eth-dapp-election\\contracts\\Election.sol",
  "compiler": {
    "name": "solc",
    "version": "0.4.24+commit.e67f0147.Emscripten.clang"
  },
  "schemaVersion": "2.0.1",
  "updatedAt": "2018-11-22T11:50:46.503Z"
}